:10000000830100308A0017288C00030883019A00BE
:100010000B1D11280B118312930A0319940AEC305B
:10002000810083121A0883008C0E0C0E09000D301B
:100030008400183020208301F62A04068001840AF7
:080040000406031D1D28003415
:100552008312B62A8312860108006630831286004F
:1005620008009930831286000800A53083128600A5
:10057200080083128F018F0A08005A308312860006
:10058200080083160516831208008312100E0F3915
:100592009500080083128601910111309000080035
:1005A20083168501831205088D00080083129500C9
:1005B2008312A2230030A22B83120D140D158D116C
:1005C2000D08850008008312060EF0399500950E7D
:1005D2000F309505150808000F3083168605831223
:1005E2008F01910111309000080083168501860168
:1005F20083122423850186018312B622FD2A8312E7
:1006020005088D000D148D100D118D110D0885003A
:100612000800023083168500831293019401831629
:1006220081018B17EC308312810008008312950040
:100632000430960053309700970B1D2B960B1B2B03
:10064200950B192B080083128E01FF30831685004B
:1006520006138612061286110611861006108312E0
:1006620008008312970085110C3095001E30960009
:10067200960B392B171885151718402B8511031463
:10068200970C950B372B000008008312051A462B96
:1006920010309600960B4B2B051A462B083095000E
:1006A20092011E309600960B542B0310051A031468
:1006B200920C950B522B12080800831295006A2B9C
:1006C2003030682B6030682BC030682B9030960039
:1006D200782B83121508013A0319612B033A031987
:1006E200632B013A0319652B073A0319672B160886
:1006F2000800831295009601013098001608073C05
:100702009900990A862B0310980D990B842B1808CF
:10071200150503198E2B0D168F2B0D120D08850052
:100722000130831217238D140D0885000130172321
:100732008D100D088500960A08301602031808006D
:100742007D2B831295008312C6229600951891186C
:10075200B92B151CB32B1608043A031DB12B9601B5
:10076200960AB92B160BB82B04309600B92B9603B8
:10077200E422990016085E23190486000F0BC92B88
:1007820016085E239800980E0F3098051808850009
:10079200160EF039900015089100080032308312CD
:1007A2001723861403309500950BD52B8610033042
:1007B2009500950BDA2B061DDC2B93019401EC308E
:1007C20081008B160619E32B8B12003014020430C1
:1007D200031913020318F02B033093009401013024
:1007E20014024A3003191302031CFB2B4A309300F4
:0E07F2000130940014089900130898000800C4
:02400E00F13F80
:00000001FF
